:020000040800F2
:1000000058040020D900000899230008251F000883
:1000100000000000000000000000000000000000E0
:10002000000000000000000000000000A52F0008F4
:1000300000000000000000003125000831310008F8
:10004000EB000008EB000008EB000008EB000008E4
:10005000EB000008EB000008EB000008EB000008D4
:10006000EB000008EB000008EB000008EB000008C4
:10007000EB000008A9310008EB000008EB000008C5
:10008000EB000008EB000008EB000008EB000008A4
:1000900015210008EB000008EB000008EB00000849
:1000A000EB000008EB000008EB000008EB00000884
:1000B000EB000008EB000008EB000008EB00000874
:1000C0000448854600F010FA00480047F95000083F
:1000D000C046C046580400200448804704480047F2
:1000E000FEE7FEE7FEE7FEE7FEE7FEE73531000844
:1000F000C100000830B50B46014600202022012433
:1001000009E00D46D5409D4205D31D469540491B4B
:100110002546954040191546521E002DF1DC30BD94
:1001200070B500242546002801DA01244042002948
:1001300001DA01254942FFF7DDFFAC4200D0404221
:10014000002C00D0494270BD024670B54A40D30F22
:10015000DB0740002DD04A002AD0010E140E000209
:1001600012020919400A520A8418E5010446544350
:10017000000A120A2E045043A4194219200CC54348
:10018000AA18120C0125AD03521C521912047F3912
:10019000240400D0521C104301D44000491EC2B2B6
:1001A0000C06C0092018401C4008802A02D003E039
:1001B000002070BD40084000002900DA00201843EC
:1001C00070BD70B502464A40D50F40004A00ED07A9
:1001D00040085208002814D0002A12D0C40DD30DB4
:1001E00041020120C0055202490A520AE41A0918C4
:1001F00012187D34914201D3641C00E04900002CA8
:1002000001DA002070BD0023914201D3891A034313
:10021000400849000028F7D100290AD0914202D1B4
:100220000121C90705E0914201D2012101E001212C
:10023000C943E005C018401900F0B5F870BD0000D2
:10024000F0B51FB488B00B9909980024484009996B
:10025000C00F490049080991C0070B990090490057
:1002600049080B9109990898A64608431CD00B9998
:100270000A98084318D0099801244000420D48000C
:10028000410D099824050003000B204309900B98A9
:100290000003000B20430B9050181C49401800220B
:1002A00001901446104605E0002001460DB0F0BD57
:1002B000032801DA034600E003239C46C11A0AAE74
:1002C0000AE05F0008ADED5B4F00F75B7D43002760
:1002D000AA187C41491C5B1E6145F2DD410004AB5C
:1002E0005A522104120C0A43240C401C0828DFDB5C
:1002F000019802900099704601910090059B049A24
:100300000799069800F09DF8D0E700000DFCFFFF6C
:1003100010B500229623114600F04DF810BD4100A3
:1003200040020122400AD205090E80187F2901DA15
:1003300000207047962903DC9622511AC840704766
:10034000963988407047C20FD207400040080BD052
:10035000C10D0723DB01C91840020905400A1143FA
:10036000C208400711437047002001467047CB0F79
:10037000DB07490010B5490802460A4307D00A0DB9
:1003800007240903E401090B121B002A01DC0020E9
:1003900010BDC900440F0C43C100E018D2058018FD
:1003A00000F001F810BD002904DA401C490001D119
:1003B00040084000704770B40024050C05D110249B
:1003C000000402D1002921D01124050E01D1000220
:1003D0000834050F01D10001241D850F01D18000D3
:1003E000A41C002801DB4000641C002908D0202543
:1003F0002E1B0D46F540A14000D0012129430843A2
:1004000001061B1B000ADB1D02D5002070BC7047D3
:10041000DB05181880180029F8DA401C4900F5D1CE
:1004200070BC40084000704710B5002B08DA00246B
:10043000401C614192185B411A4301D140084000C1
:1004400010BDF0B51FB482B005460C0003D00846BD
:1004500004F0E0FC02E004F0DDFC203002460090F5
:100460002146284600F052F8049B059A04460F46A0
:1004700018431143084314D0184610431BD000986A
:1004800040210A1A1846059900F050F805460E4614
:10049000009A0599049800F039F8084305D0012026
:1004A00004E02046394607B0F0BD0020C1170543DF
:1004B0000E432C43374300990E986305401A790583
:1004C000E40A00220C43FD0A0A3002D5002001464E
:1004D000E9E70105101969410C9C0D9D001969415E
:1004E000FFF7A2FFDFE70000064C0125064E05E0FE
:1004F000E36807CC2B430C3C98471034B442F7D345
:10050000FFF7E2FD045200082452000810B5202A2B
:1005100004DB0146203A9140002010BD9140202389
:100520009C1A0346E3401943904010BD10B5202AA1
:1005300004DB0846203AD040002110BD0B46D340D2
:10054000D0402024A21A91400843194610BD416DA5
:100550001022914341657047F8B5064600240027F4
:10056000002500BF05E0304600F0A8FA4519601CE0
:10057000C4B2082CF7DB6803070C3846F8BD00004E
:1005800070B505460C460D48854200D104E00C4A82
:100590000CA11BA004F058FD80202040002802D1AF
:1005A000002C00D005E02522520106A119A004F07C
:1005B0004BFD7F20A043286070BD00000008024072
:1005C0009F0400002E2E5C2E2E5C6669726D776192
:1005D00072655C6E3332673033315F7374645F70A1
:1005E00065726970685F6472697665725C73726364
:1005F0005C6E3332673033315F6164632E630000B9
:1006000049734164634D6F64756C65284144437858
:10061000290000004973416463436C72466C616752
:10062000284144435F464C414729000070B50546C8
:100630000C46002D0BD10021FF20013002F0CEF836
:10064000204602F069F80748FFF781FF09E0012121
:10065000204602F0C3F8002002F05EF8014800F0E6
:100660003DFC70BD00080240FFB581B007460C4656
:100670001D460026002000906B48874200D104E010
:100680006A4A6BA179A004F0DFFC002C1DD0012C7C
:100690001BD0022C19D0032C17D0042C15D0052CFC
:1006A00013D0062C11D0072C0FD0082C0DD0092CFC
:1006B0000BD00A2C09D00B2C07D00C2C05D00D2CFC
:1006C00003D00E2C01D00F2C00D105E02122120105
:1006D00057A16BA004F0B8FC0398012803DB039832
:1006E000102800DC05E0514A921C51A16BA004F0D7
:1006F000ABFC002D1DD0012D1BD0022D19D0032DD8
:1007000017D0042D15D0052D13D0062D11D0072D8F
:100710000FD0082D0DD0092D0BD00A2D09D00B2D8F
:1007200007D00C2D05D00D2D03D00E2D01D00F2D8F
:1007300000D105E03D4AD21C3DA15EA004F084FC3E
:10074000072C14DD3E692046083881000F208840C0
:1007500000903146009881430E46204608388100BB
:10076000284688400090009806433E610FE07E696D
:10077000A1000F20884000903146009881430E462A
:10078000A100284688400090009806437E610398A7
:10079000072816DABE6B0398401E810041180F200F
:1007A000884000903146009881430E460398401ED1
:1007B0008100411820468840009000980643BE639F
:1007C0002FE003980D2816DA7E6B0398C01F810076
:1007D00041180F20884000903146009881430E4612
:1007E0000398C01F8100411820468840009000985F
:1007F00006437E6315E03E6B03980D388100411877
:100800000F20884000903146009881430E4603989F
:100810000D3881004118204688400090009806431A
:100820003E6305B0F0BD0000000802400F0200006A
:100830002E2E5C2E2E5C6669726D776172655C6E21
:100840003332673033315F7374645F70657269701F
:10085000685F6472697665725C7372635C6E333272
:10086000673033315F6164632E6300004973416414
:10087000634D6F64756C652841444378290000001E
:1008800049734164634368616E6E656C28414443FB
:100890005F4368616E6E656C2900000049734164B6
:1008A0006352657152616E6B56616C696428526166
:1008B0006E6B2900497341646353616D706C6554BC
:1008C000696D65284144435F53616D706C6554697F
:1008D0006D65290070B504460D461048844200D16C
:1008E00005E0FF2223320EA11CA004F0ADFB002D79
:1008F00001D0012D00D105E0FF22243208A11CA067
:1009000004F0A2FB002D04D0A06801210843A060E0
:1009100003E0A06840084000A06070BD00080240ED
:100920002E2E5C2E2E5C6669726D776172655C6E30
:100930003332673033315F7374645F70657269702E
:10094000685F6472697665725C7372635C6E333281
:10095000673033315F6164632E6300004973416423
:10096000634D6F64756C652841444378290000002D
:1009700049535F46554E4354494F4E414C5F535483
:1009800041544528436D64290000000070B50446B9
:100990000D461148844200D105E0FF2286320FA1A6
:1009A0001DA004F051FB002D01D0012D00D105E068
:1009B000FF22873209A11DA004F046FB002D05D0BF
:1009C000A068052109050843A06004E0A06805218E
:1009D00009058843A06070BD000802402E2E5C2EE1
:1009E0002E5C6669726D776172655C6E333267305A
:1009F00033315F7374645F7065726970685F6472CD
:100A0000697665725C7372635C6E33326730333162
:100A10005F6164632E63000049734164634D6F64DA
:100A2000756C6528414443782900000049535F46AE
:100A3000554E4354494F4E414C5F53544154452801
:100A4000436D64290000000010B504460548844247
:100A500000D104E0044A05A113A004F0F5FA206DCA
:100A600080B210BD00080240830200002E2E5C2ED2
:100A70002E5C6669726D776172655C6E33326730C9
:100A800033315F7374645F7065726970685F64723C
:100A9000697665725C7372635C6E333267303331D2
:100AA0005F6164632E63000049734164634D6F644A
:100AB000756C6528414443782900000070B50446F0
:100AC0000623012221460E48FFF7CEFD01210C48E6
:100AD000FFF75CFF00BF2021094800F013F8002851
:100AE000F9D020210648FFF74BFD10210448FFF7FD
:100AF00047FD0348FFF7A8FF0546284670BD0000E4
:100B00000008024070B505460C4600261348854291
:100B100000D104E0124A13A121A004F095FA012C9F
:100B20000BD0022C09D0042C07D0082C05D0102C97
:100B300003D0202C01D0402C00D105E0084A521CE3
:100B400008A11CA004F080FA28682040002801D0E9
:100B5000012600E00026304670BD0000000802407B
:100B60007E0400002E2E5C2E2E5C6669726D77610D
:100B700072655C6E3332673033315F7374645F70FB
:100B800065726970685F6472697665725C737263BE
:100B90005C6E3332673033315F6164632E63000013
:100BA00049734164634D6F64756C652841444378B3
:100BB000290000004973416463476574466C6167AE
:100BC000284144435F464C414729000070B5054623
:100BD0000C4600261348854200D104E0124A13A1B6
:100BE00021A004F031FA012C0BD0022C09D0042CE6
:100BF00007D0082C05D0102C03D0202C01D0402C7D
:100C000000D105E0084A521C08A11CA004F01CFAFF
:100C1000686D2040002801D0012600E00026304603
:100C200070BD0000000802402C0500002E2E5C2E36
:100C30002E5C6669726D776172655C6E3332673007
:100C400033315F7374645F7065726970685F64727A
:100C5000697665725C7372635C6E33326730333110
:100C60005F6164632E63000049734164634D6F6488
:100C7000756C65284144437829000000497341643C
:100C800063476574466C6167284144435F464C4145
:100C9000475F4E4557290000F8B506460C4600252B
:100CA00000273F48864200D104E0D9223DA14CA054
:100CB00004F0CAF92078002802D02078012800D159
:100CC00004E0DA2237A14BA004F0BEF960780028D6
:100CD00002D06078012800D104E0DB2231A151A0CC
:100CE00004F0B2F96068002816D001214904606858
:100CF000884211D04900606888420DD04900606880
:100D0000884209D0032189046068884204D0072101
:100D100049046068884200D104E0DC2221A14EA091
:100D200004F092F9A068002804D00121C902A0684B
:100D3000884200D104E0DD221AA152A004F084F917
:100D4000207B012803DB207B102800DC04E0DE226E
:100D500014A156A004F078F97568FF2101312846E6
:100D6000884305462078000205437560B5685A48F7
:100D700005406168A068084361784900084305435D
:100D8000B560356B0F210905284688430546207B51
:100D9000401EC0B20743380505433563F8BD000067
:100DA000000802402E2E5C2E2E5C6669726D776103
:100DB00072655C6E3332673033315F7374645F70B9
:100DC00065726970685F6472697665725C7372637C
:100DD0005C6E3332673033315F6164632E630000D1
:100DE00049734164634D6F64756C65284144437871
:100DF0002900000049535F46554E4354494F4E4128
:100E00004C5F5354415445284144435F496E6974D3
:100E10005374727563742D3E4D756C7469436845E7
:100E20006E29000049535F46554E4354494F4E4189
:100E30004C5F5354415445284144435F496E6974A3
:100E40005374727563742D3E436F6E74696E75656D
:100E5000436F6E76456E290049734164634578742B
:100E600054726967284144435F496E6974537472D0
:100E70007563742D3E4578745472696753656C656B
:100E8000637429004973416463446174416C696708
:100E90006E284144435F496E69745374727563747C
:100EA0002D3E446174416C69676E29004973416449
:100EB000635365714C656E56616C696428414443A7
:100EC0005F496E69745374727563742D3E43687321
:100ED0004E756D6265722900FDF7F1FF416D1022BC
:100EE0001143416570470000F0B585B0394800886E
:100EF00000286DD1FA20374908800120FFF72CFB2C
:100F0000694688808888FFF703FA0090FFF71BFA8C
:100F10000646314A314BFFF793F90446FFF727FAAB
:100F200004908B21C9050498FFF74BF903902C49D5
:100F30000398FFF709F90446FFF7F1F929490880FA
:100F40000020FFF709FB6946C880C888FFF7E0F971
:100F50000090FFF7F8F904461F4A204BFFF770F99D
:100F60000646FFF704FA04908B21C9050498FFF7A1
:100F700028F903901A490398FFF7E6F80446FFF7AB
:100F8000CEF9194908800520FFF7E6FA694608817D
:100F90000889FFF7BDF90090FFF7D5F904460E4A1E
:100FA0000E4BFFF74DF90646FFF7E1F904908B2150
:100FB000C9050498FFF705F9039009490398FFF75D
:100FC000C3F80446FFF7ABF90849088000F0F6F9CA
:100FD00005B0F0BD0C0000206666666666660A40D5
:100FE00000007A44040000200600002008000020D1
:100FF00010B58AB00121042001F0CCFD01210803C5
:1010000001F0F0FC012001F031FE01F0ADFF0446DB
:10101000012C01D000BFFEE70721C902002001F02A
:1010200089FA08210020FFF701FB04A800F022FD47
:10103000232004900320059004A9134800F0B4FA7B
:101040000021684601704170072040040190002093
:10105000029001216846017369460C48FFF71CFEA7
:1010600001210A48FFF736FC00BF20210748FFF79F
:10107000ADFD0028F9D000BF40210448FFF7A6FDD0
:101080000028F9D10AB010BD000801400008024054
:1010900010B500249F4800788007800F032831D0C6
:1010A0009D48007809282CD19A4800888021084062
:1010B000802826D00221994800F022FE00BF14E0CB
:1010C0000821974800F0B4FE0121944800F0B0FEDA
:1010D0008021934800F0ACFE1021914800F0A8FE5A
:1010E000C82003F0CFFF601CC4B2042CE8DB7D20D5
:1010F000C0008C490880874800880321084385493F
:10110000088091E0834800888021084080280FD023
:10111000854800888549884203DB854800888842E5
:1011200006DA7C480088802108437A49088014E068
:10113000784800888021084080280ED17A480088AD
:101140007A49884209DD7A480088884205DD71487D
:101150000088802188436F4908806F4800780928FB
:1011600005D0744800884B21C900884228DD7D20C5
:10117000C0006C49088000206F4908606F490880F2
:10118000644908806E4908706E4908706E4908709D
:101190006E49087008216E4800F01AFD00216D4864
:1011A00003F038F901215E4800F012FD594800882B
:1011B00080088000574908800221584800F008FD47
:1011C0005548007801280BD101F01CF85F480078E1
:1011D000002802D103F0C4F924E003F061F921E012
:1011E0004C4800888021084080281BD103F0B8F9C2
:1011F00000BFFF226732584958A003F0FBFD4C485E
:101200000288494801885CA003F0F4FD00BF00BFDC
:10121000FF226832504951A003F0ECFD5DA003F0BD
:10122000E9FD00BF01F00CF83A48008810210840A1
:1012300010284ED13748008820210840202848D067
:1012400042480078002844D0324800888021084075
:1012500080283ED02F48008849010840884238D075
:1012600000BFFF226F323C493CA003F0C3FD4DA0FC
:1012700003F0C0FD00BF4F48007801280CD10121C8
:10128000274800F0A5FC0821314800F039FD112164
:10129000304803F0BFF80BE000212E4803F0BAF805
:1012A00008212B4800F02CFD01211D4800F028FDED
:1012B000012000F077FF00201E49088019480088AF
:1012C000002819D17D20C0001649088003F05AF982
:1012D00012E000211F4803F09DF808211C4800F08F
:1012E00077FC01210E4800F073FC002000F05AFF4B
:1012F0007D20C0000B490880074800788021084302
:10130000054908702C480078802108432A49087054
:1013100010BD00001800002014000020001C014037
:10132000000C01401C000020040000202E090000D9
:10133000060000201A0000202400002036000020B3
:101340003300002032000020310000203000002057
:101350000008014000340140AF5100084C4F4720C5
:10136000696E2046554E433A25732C204C494E4514
:101370003A25642E000000004E5443315F56616CE4
:1013800075653D25642C4E5443325F56616C75651E
:101390003D256400544845524D414C5F4552520D25
:1013A0000A00000054726561742073746172740DD8
:1013B0000A00000034000020150000202A49098896
:1013C0004A00891888B22949884203DD6421284AE5
:1013D00011701EE02749884203DD4B21244A117019
:1013E00017E02549884203DD3221214A117010E0BF
:1013F0002249884203DD19211D4A117009E0204964
:10140000884203DD14211A4A117002E00021184AB3
:1014100011701A49884214DC1A490978082904DA3B
:1014200018490978491C174A117016490978082982
:1014300019DB15490988012212031143124A118050
:1014400011E0E121490188420ADB00210D4A1170B7
:101450000D4909880122120391430B4A118002E0D1
:101460000021084A1170704708000020DC1E0000AF
:101470000A000020B01D0000841C0000581B000062
:10148000701700000B0000201800002030B58FB04E
:1014900004460D460121022001F010FB0121052028
:1014A00001F078FB09A800F0E5FA1020099002206D
:1014B0000A9001200D9002200E9009A9154800F015
:1014C00073F805A802F034FE684604838582002183
:1014D0004183C18205A9104802F038FE7021684698
:1014E00081800121C180002141810221818101A9E6
:1014F000094802F0CDFA0821074802F099F80121C5
:10150000054801F0A1FF0121034802F069F90FB07D
:1015100030BD0000000801400004004000B587B065
:101520000121042001F036FB0121082001F032FBEB
:101530000121802001F02EFB01A800F09BFAFF2082
:10154000493001900120029001A9134800F02CF8C5
:101550009B2001900120029001A9104800F024F87E
:10156000032001900120029001A90D4800F01CF811
:101570000C49094800F02CFBFF210131064800F01E
:10158000BFFB9B21054800F023FB0321044800F02A
:101590001FFB07B000BD000000080140000C014027
:1015A000001C014048080000F8B506460C4600271C
:1015B000002000900025C748864208D0C6488642D1
:1015C00005D0C648864202D0C548864200D104E014
:1015D000E022C4A1D2A003F037FDBE48864208D164
:1015E000208880B2002804D0D4492068084388426B
:1015F00024D0B948864208D1208880B2002804D07F
:10160000CE4920680843884218D0B448864209D1A0
:101610000721490320680840002803D020680843B8
:1016200088420BD0AE48864209D1C72120680840C5
:10163000002804D020680843C72800D104E0E12234
:10164000A8A1BFA003F000FD6068002826D0606854
:10165000012823D06068112820D0606802281DD09E
:10166000606812281AD0C3496068884216D0C249FF
:101670006068884212D0C149606888420ED0C04973
:10168000606888420AD0BF496068884206D0BE4977
:101690006068884202D06068032800D104E0E32239
:1016A00090A1BAA003F0D0FCA068002805D0A068E3
:1016B000012802D0A068022800D104E0E42289A118
:1016C000BDA003F0C1FCE068002802D0E06801285A
:1016D00000D104E0E52283A1C2A003F0B5FC20699B
:1016E000002802D02069012800D104E0E6227DA173
:1016F000C7A003F0A9FCE6E00121B940206808403A
:101700000090009800287DD06068022802D06068B0
:10171000122829D160690F2800D804E0F42271A1B1
:10172000C7A003F091FC0820384000280ED0756A4D
:101730007807C10E0F208840294681430D4679075E
:10174000C90E60698840054375620DE0356A780707
:10175000C10E0F208840294681430D467907C90EE6
:1017600060698840054335626068012808D0606878
:10177000112805D06068022802D0606812280BD1B9
:1017800075680120B840294681430D462079C0067E
:10179000C00FB84005437560356879000320884064
:1017A000294681430D4620798007800F79008840C3
:1017B00005433560F5687900032088402946814358
:1017C0000D467900A06888400543F560B5680120A2
:1017D000B840294681430D46E068B8400543B560EE
:1017E000F56A0120B840294681430D462069B8407A
:1017F0000543F5620121090760680840884261D10C
:101800009A4800E05EE0B90889004558B807010F22
:101810000F208840294681430D462E48864201D13B
:1018200000200AE02C48864201D1012005E02B4827
:10183000864201D1022000E00520B907090F884047
:1018400005438A48B90889004550894805682946F2
:10185000009881430D4601210904606808408842D0
:1018600001D10098054382480560456829460098E3
:1018700081430D460121490460680840884201D136
:10188000009805437A484560856829460098814359
:101890000D460121090560680840884201D1009881
:1018A000054373488560C5682946009881430D4605
:1018B0000121490560680840884201D1009805432C
:1018C0006B48C5607F1C2068F840002800D013E7F3
:1018D000F8BD000000080140000C0140001001406C
:1018E000001C01402E2E5C2E2E5C6669726D7761A5
:1018F00072655C6E3332673033315F7374645F706E
:1019000065726970685F6472697665725C73726330
:101910005C6E3332673033315F6770696F2E6300FE
:1019200049535F4750494F5F414C4C5F50455249C6
:101930005048284750494F7829000000FFFF000019
:1019400049535F4750494F5F50494E5F41564149A7
:101950004C41424C45284750494F782C204750492C
:101960004F5F496E69745374727563742D3E50698C
:101970006E2900000000111000002110000031103D
:1019800000201310000012100000321049535F476E
:1019900050494F5F4D4F4445284750494F5F496E6E
:1019A00069745374727563742D3E4750494F5F4D8F
:1019B0006F6465290000000049535F4750494F5F3D
:1019C00050554C4C284750494F5F496E69745374C9
:1019D000727563742D3E4750494F5F50756C6C298A
:1019E0000000000049535F4750494F5F5350454541
:1019F00044284750494F5F496E6974537472756348
:101A0000742D3E4750494F5F53706565642900004F
:101A100049535F4750494F5F43555252454E5428F2
:101A20004750494F5F496E69745374727563742DE2
:101A30003E4750494F5F43757272656E74290000CE
:101A400049535F4750494F5F4146284750494F5FD0
:101A5000496E69745374727563742D3E4750494FD3
:101A60005F416C7465726E61746529000800014005
:101A700000040140054901600F21416100214160DE
:101A800081600121C160002101617047FFFF0000FA
:101A900070B504460D4600262948844208D02948DE
:101AA000844205D02848844202D02848844200D18C
:101AB00005E0FF22783226A134A003F0C5FA2048C1
:101AC000844207D1A8B2002804D0374828433649B9
:101AD000884224D01B48844207D1A8B2002804D0F1
:101AE000314828433049884219D0174884420BD1E5
:101AF000072040032840002806D007204003284341
:101B00000721490388420AD01048844208D1C720DF
:101B10002840002804D0C7202843C72800D105E06A
:101B2000FF2279320AA121A003F08EFA2069284011
:101B3000002801D0012600E00026304670BD0000DC
:101B400000080140000C014000100140001C014051
:101B50002E2E5C2E2E5C6669726D776172655C6EEE
:101B60003332673033315F7374645F7065726970EC
:101B7000685F6472697665725C7372635C6E33323F
:101B8000673033315F6770696F2E630049535F4779
:101B900050494F5F414C4C5F50455249504828478F
:101BA00050494F7829000000FFFF000049535F476C
:101BB00050494F5F50494E5F415641494C41424C5C
:101BC00045284750494F782C2050696E2900000065
:101BD00070B504460D462648844208D02548844204
:101BE00005D02548844202D02448844200D105E033
:101BF000FF22D23222A131A003F026FA1C488442EF
:101C000007D1A8B2002804D033482843324988427B
:101C100024D01848844207D1A8B2002804D02E4806
:101C200028432D49884219D0134884420BD10720FC
:101C300040032840002806D00720400328430721FE
:101C4000490388420AD00D48844208D1C720284061
:101C5000002804D0C7202843C72800D105E0FF2270
:101C6000D33207A11DA003F0EFF9A56270BD0000FB
:101C700000080140000C014000100140001C014020
:101C80002E2E5C2E2E5C6669726D776172655C6EBD
:101C90003332673033315F7374645F7065726970BB
:101CA000685F6472697665725C7372635C6E33320E
:101CB000673033315F6770696F2E630049535F4748
:101CC00050494F5F414C4C5F50455249504828475E
:101CD00050494F7829000000FFFF000049535F473B
:101CE00050494F5F50494E5F415641494C41424C2B
:101CF00045284750494F782C2050696E2900000034
:101D000070B504460D462648844208D025488442D2
:101D100005D02548844202D02448844200D105E001
:101D2000FF22C33222A131A003F08EF91C48844265
:101D300007D1A8B2002804D033482843324988424A
:101D400024D01848844207D1A8B2002804D02E48D5
:101D500028432D49884219D0134884420BD10720CB
:101D600040032840002806D00720400328430721CD
:101D7000490388420AD00D48844208D1C720284030
:101D8000002804D0C7202843C72800D105E0FF223F
:101D9000C43207A11DA003F057F9A56170BD000072
:101DA00000080140000C014000100140001C0140EF
:101DB0002E2E5C2E2E5C6669726D776172655C6E8C
:101DC0003332673033315F7374645F70657269708A
:101DD000685F6472697665725C7372635C6E3332DD
:101DE000673033315F6770696F2E630049535F4717
:101DF00050494F5F414C4C5F50455249504828472D
:101E000050494F7829000000FFFF000049535F4709
:101E100050494F5F50494E5F415641494C41424CF9
:101E200045284750494F782C2050696E2900000002
:101E300070B505460C461D48854207D1A0B2002862
:101E400004D01B4820431A49884224D019488542AF
:101E500007D1A0B2002804D0154820431449884275
:101E600019D0154885420BD1072040032040002897
:101E700006D00720400320430721490388420AD0A7
:101E80000E48854208D1C7202040002804D0C72032
:101E90002043C72800D104E0094A0AA118A003F092
:101EA000D3F868696040686170BD000000080140B7
:101EB000FFFF0000000C014000100140001C014029
:101EC000090200002E2E5C2E2E5C6669726D776111
:101ED00072655C6E3332673033315F7374645F7088
:101EE00065726970685F6472697665725C7372634B
:101EF0005C6E3332673033315F6770696F2E630019
:101F000049535F4750494F5F50494E5F41564149E1
:101F10004C41424C45284750494F782C2050696E1F
:101F20002900000000BFFEE730B58FB004460D4623
:101F30000121080300F02EFE0121052000F02AFEF9
:101F400009A8FFF797FDFF200130099002200A90B1
:101F500001200D9002200E9009A91C48FFF724FBD8
:101F600005A802F0E5F868460483858200214183D4
:101F7000C18205A9164802F0E9F801A802F0CEF8DE
:101F80007021684681800121C180002101810821E2
:101F9000C18100214182018241810221818101A907
:101FA0000B4801F075FD0821094801F041FB0121B2
:101FB000074801F049FA0121054801F011FC01210F
:101FC000034801F07BFC0FB030BD00000008014069
:101FD000002C014000B587B00121052000F0DAFD9A
:101FE00001A8FFF747FD0320800201900120039024
:101FF0000020029001A90248FFF7D6FA07B000BD01
:102000000008014070B500243A4D0121C9023A4848
:10201000FFF73EFD002801D1012004433748007836
:10202000844209D000203649088036490870364974
:1020300008703649088059E0344800880A2855DD80
:10204000002C01D0204601E031480078304908706A
:10205000002C09D02D4800884B210901884203DD5E
:1020600020460821084301E02948007828490870E3
:10207000002C0BD108460078002807D008460178CC
:102080001C480841C007C00F002815D0002C17D0ED
:102090001F480078002813D01D48017815480841D2
:1020A000C007C00F00280BD0174800784006400E2C
:1020B00017490978884203D01548007812490870FA
:1020C000002C0BD00F4800784006400E10490978CC
:1020D000884203D00E4800780A490870002C02D0CC
:1020E0000B48007800E0002009490870034804709C
:1020F00070BD0000F8FF0000000801401000002043
:102100001A00002015000020140000200E000020FE
:102110001100002010B501211B4801F039FC0028F6
:1021200031D00121184801F029F9184800881849D0
:10213000884204DA15480088401C14490880154874
:102140000088002804DD13480088401E11490880DB
:1021500011480088002804DD0F480088401E0E4901
:1021600008800E480088002804DD0C480088401EC6
:102170000A4908800A480088002804DD08480088C9
:10218000401E0749088010BD001000400E000020CE
:10219000FFFF00001C0000200C0000204E0000206B
:1021A0002C00002010B504461348008801210903C3
:1021B0000840884212D1104800788007800F032819
:1021C0000CD10E480088002807D1FF20F5300B49BC
:1021D000088008210A48FFF72BFE10BD002C04D010
:1021E00008210748FFF78CFD03E008210448FFF7AA
:1021F000EFFC00BFF1E70000180000202C000020D9
:10220000000C01400D480078012808D0022802D0B7
:1022100003280CD107E00120084908700BE00320D7
:102220000649087007E000200449087003E0022016
:102230000249087000BF00BF704700003000002056
:1022400010B51F480078012811D0022802D00328B9
:1022500027D119E001211B48FFF752FD80211A48C0
:10226000FFF7B6FC10211848FFF7B2FC26E0012169
:102270001448FFF7ADFC80211348FFF741FD102102
:102280001148FFF7A5FC19E001210E48FFF7A0FC5B
:1022900080210D48FFF79CFC10210B48FFF730FD13
:1022A0000CE001210748FFF793FC80210648FFF767
:1022B0008FFC10210448FFF78BFC00BF00BF10BD4E
:1022C00030000020001C0140000C014010B500212E
:1022D000014802F059F810BD002C014010B5092149
:1022E000014802F051F810BD002C014008B52F2123
:1022F0001920FFF719FE00210B4801F099F9FFF7AB
:10230000E5FF0D21684601700021417001218170B7
:1023100000F044F800220121034801F003F90020F5
:102320000249087008BD0000002C01403C0000205C
:1023300000B587B00121042000F02CFC01A8FFF7B4
:1023400099FB01204002019000200290012003909F
:1023500001A90248FFF728F907B000BD00080140B5
:1023600070B506460B480021415E751A1A2D00DA39
:102370001A251A2128460D30FDF7D2FE84B2002C12
:1023800000D101241A206043401B00B2014908809B
:10239000204670BD460000207047000010B504467E
:1023A000A078002802D0A078012800D104E064229F
:1023B00015A122A002F048FE6078042800DA04E0AB
:1023C000652211A12CA002F03FFE6178002020566A
:1023D00000F072F8A078002809D000202056C2062C
:1023E000D20E01219140334A116000BF0AE0002063
:1023F0002056C206D20E012191402E4A8032116031
:1024000000BF00BF10BD00002E2E5C2E2E5C666942
:10241000726D776172655C6E3332673033315F7332
:1024200074645F7065726970685F64726976657202
:102430005C7372635C6D6973632E630049535F461E
:10244000554E4354494F4E414C5F535441544528D7
:102450004E5649435F496E69745374727563742DA7
:102460003E4E5649435F4952514368616E6E656CFA
:10247000436D64290000000049535F4E5649435F95
:102480005052494F52495459284E5649435F496E5C
:1024900069745374727563742D3E4E5649435F4997
:1024A00052514368616E6E656C5072696F726974E7
:1024B0007929000000E100E010B5002819DA1A4A75
:1024C00003071B0F083B9B089B00D2588307DC0EB9
:1024D000FF23A3409A438B071B0E8407E40EA340FF
:1024E0001A43114B0407240F083CA408A4001A51F6
:1024F00018E00E4A03231B02D21883089B00D2580F
:102500008307DC0EFF23A3409A438B071B0E84072F
:10251000E40EA3401A43054B032424021B1984082C
:10252000A4001A5110BD00001CED00E000E100E025
:102530007047000070B506460C460025002E03D0FB
:1025400001208002864200D104E04E4A4EA15DA0E7
:1025500002F07AFD002C7AD00120C002844276D0AD
:102560004000844273D00320C00284426FD0012017
:10257000400384426BD00520C002844267D0032010
:102580000003844263D00720C00284425FD0012050
:10259000800384425BD00920C002844257D00520CA
:1025A0000003844253D00B20C00284424FD003204A
:1025B000400384424BD00D20C002844247D0072004
:1025C0000003844243D00F20C00284423FD0012048
:1025D000C00384423BD01120C002844237D009207E
:1025E0000003844233D01320C00284422FD0052040
:1025F000400384422BD01520C002844227D00B20F8
:102600000003844223D01720C00284421FD003203D
:10261000800384421BD01920C002844217D00D20B1
:102620000003844213D01B20C00284420FD0072035
:10263000400384420BD01D20C002844207D00F20EB
:102640000003844203D01F20C002844200D105E071
:10265000A52292000CA125A002F0F6FC2D48C56A27
:1026600001152846884305461F21C902284688438C
:10267000054628463043054628462043054625485A
:10268000C56270BD930200002E2E5C2E2E5C666922
:10269000726D776172655C6E3332673033315F73B0
:1026A00074645F7065726970685F64726976657280
:1026B0005C7372635C6E3332673033315F726363B5
:1026C0002E63000049535F5243435F414443314D01
:1026D000434C4B535243285243435F414443314D93
:1026E000434C4B536F7572636529000049535F5229
:1026F00043435F414443314D434C4B505245285274
:1027000043435F414443314D5072657363616C656F
:10271000722900000010024070B504460025002C0C
:1027200015D0012C13D0022C11D0032C0FD0042C67
:102730000DD0052C0BD0062C09D0072C07D0082C67
:1027400005D0092C03D009202040002800D004E047
:10275000074A08A116A002F077FC1F48C56A2D0998
:102760002D012846204305461B48C56270BD000068
:10277000E70200002E2E5C2E2E5C6669726D77617A
:1027800072655C6E3332673033315F7374645F70CF
:1027900065726970685F6472697665725C73726392
:1027A0005C6E3332673033315F7263632E630000D7
:1027B00049535F5243435F41444348434C4B50525B
:1027C00045285243435F41444348434C4B50726554
:1027D0007363616C657229000010024070B5044695
:1027E0000D460026FF200130844236D0FF201130F4
:1027F000844232D0FF20213084422ED0FF2031305D
:1028000084422AD0FF204130844226D0FF2051301C
:10281000844222D0FF20613084421ED0FF207130DC
:1028200084421AD0FF208130844216D0FF2091309C
:10283000844212D0FF20A13084420ED0FF20B1305C
:1028400084420AD0FF20C130844206D0FF20D1301C
:102850002040FF21C131884200D104E0124A13A177
:1028600021A002F0F1FB002D01D0012D00D105E0E7
:102870000B2292010DA127A002F0E6FB2C48C66AAC
:10288000FF21F131304688430646002D03D0304603
:102890002043064604E0FF210131304688430646C6
:1028A0002348C66270BD0000BF0200002E2E5C2EC1
:1028B0002E5C6669726D776172655C6E333267306B
:1028C00033315F7374645F7065726970685F6472DE
:1028D000697665725C7372635C6E33326730333174
:1028E0005F7263632E63000049535F5243435F414D
:1028F0004443504C4C434C4B505245285243435F49
:10290000414443504C4C434C4B5072657363616C73
:102910006572290049535F46554E4354494F4E4115
:102920004C5F535441544528436D64290000000016
:102930000010024070B504460025002C0FD0012085
:10294000800284420BD005200002844207D003207D
:102950004002844203D007200002844200D105E0F7
:102960008922920008A117A002F06EFB1C4845685E
:102970000721090228468843054628462043054684
:102980001748456070BD00002E2E5C2E2E5C6669D7
:10299000726D776172655C6E3332673033315F73AD
:1029A00074645F7065726970685F6472697665727D
:1029B0005C7372635C6E3332673033315F726363B2
:1029C0002E63000049535F5243435F48434C4B5FC3
:1029D000444956285243435F48434C4B290000006A
:1029E0000010024070B504460D46124820400028F1
:1029F00002D1002C00D004E00F4A10A11EA002F06A
:102A000023FB002D01D0012D00D105E00A4A521C04
:102A10000AA122A002F018FB002D05D0264840692B
:102A200020432549486104E023484069A0432249E6
:102A3000486170BD0AEFFFFF7A0400002E2E5C2E65
:102A40002E5C6669726D776172655C6E33326730D9
:102A500033315F7374645F7065726970685F64724C
:102A6000697665725C7372635C6E333267303331E2
:102A70005F7263632E63000049535F5243435F41BB
:102A800048425F504552495048285243435F4148AD
:102A900042506572697068290000000049535F4622
:102AA000554E4354494F4E414C5F53544154452871
:102AB000436D6429000000000010024070B5044618
:102AC0000D4612482040002802D1002C00D004E01E
:102AD0000F4A10A11EA002F0B7FA002D01D0012D5F
:102AE00000D105E00A4A521C0AA122A002F0ACFA69
:102AF000002D05D02648C06920432549C86104E05F
:102B00002348C069A0432249C86170BDC1F4996FD0
:102B1000B10400002E2E5C2E2E5C6669726D77610A
:102B200072655C6E3332673033315F7374645F702B
:102B300065726970685F6472697665725C737263EE
:102B40005C6E3332673033315F7263632E63000033
:102B500049535F5243435F415042315F50455249B0
:102B60005048285243435F4150423150657269706A
:102B70006829000049535F46554E4354494F4E4122
:102B80004C5F535441544528436D642900000000B4
:102B90000010024070B504460D461248204000283F
:102BA00002D1002C00D004E00F4A10A11EA002F0B8
:102BB0004BFA002D01D0012D00D105E00A4A521C2C
:102BC0000AA122A002F040FA002D05D02648806913
:102BD00020432549886104E023488069A0432249B5
:102BE000886170BD6289FFFF950400002E2E5C2E67
:102BF0002E5C6669726D776172655C6E3332673028
:102C000033315F7374645F7065726970685F64729A
:102C1000697665725C7372635C6E33326730333130
:102C20005F7263632E63000049535F5243435F4109
:102C30005042325F504552495048285243435F4109
:102C400050423250657269706829000049535F46EE
:102C5000554E4354494F4E414C5F535441544528BF
:102C6000436D6429000000000010024010B50446C6
:102C7000002C01D0012C00D105E0FF2263320AA113
:102C800018A002F0E1F9012C06D11D4800680121CD
:102C900008431B49086005E01948006840084000E7
:102CA0001749086010BD00002E2E5C2E2E5C666950
:102CB000726D776172655C6E3332673033315F738A
:102CC00074645F7065726970685F6472697665725A
:102CD0005C7372635C6E3332673033315F7263638F
:102CE0002E63000049535F46554E4354494F4E41B1
:102CF0004C5F535441544528436D64290000000043
:102D000000100240F0B585B00446002500BF002049
:102D100003900290019000900027534840680F21D3
:102D20000904084003905048406803210905084001
:102D300002904D4840688900084001904A48406828
:102D400001210906084000900398000CC01C039064
:102D50000098000E002804D14449039848430646D1
:102D600003E042490398484306460298000D401C80
:102D7000029030460299FDF7BDF906460198800D94
:102D8000401C019030460199FDF7B4F906463648DB
:102D9000406837490840054601218903681A8D4279
:102DA00012D004DC002D09D0082D16D109E0082826
:102DB0000CD001218903401A0FD10BE02B48206071
:102DC0000EE02A4820600BE0266009E00120C003E5
:102DD000206005E02748206002E02448206000BF12
:102DE00000BF21484068F021084005462D09082D04
:102DF00000D200252048475D2068F84060601A48EE
:102E0000406807210902084005462D0A1A48475D17
:102E10006068F840A06014484068C9000840054652
:102E2000ED0A1548475D6068F840E0600E48C06AEA
:102E300005072D0F1148475D39466068FDF75AF9BF
:102E400060610948C06AFF21F131084005462D093B
:102E50002807C00E0A490F5A39463046FDF74AF98D
:102E6000206105B0F0BD00000010024000127A00A1
:102E700008C00000307500004C5100085C5100088B
:102E80006C510008F8B50446002500260027212CC7
:102E90001DD0312C1BD0392C19D0412C17D0432CEC
:102EA00015D0812C13D0822C11D0832C0FD0842CE0
:102EB0000DD0852C0BD0862C09D0872C07D0882CE0
:102EC00005D0892C03D08A2C01D08B2C00D104E0B2
:102ED0000E4A0FA11DA002F0B7F86511012D02D115
:102EE0002048066806E0022D02D11E48066A01E06D
:102EF0001C48466AE506ED0E0120A8403040002837
:102F000001D0012700E000273846F8BD7405000015
:102F10002E2E5C2E2E5C6669726D776172655C6E1A
:102F20003332673033315F7374645F706572697018
:102F3000685F6472697665725C7372635C6E33326B
:102F4000673033315F7263632E63000049535F5211
:102F500043435F464C4147285243435F464C4147F9
:102F6000290000000010024038B500200090002425
:102F7000002500BF2120FFF785FF05460098401C73
:102F80000090052109020098884201D0002DF1D05F
:102F90002120FFF777FF002801D0012400E0002462
:102FA000204638BD7047000010B5002000220021E7
:102FB000334B1B6801242343314C236000BF304B4B
:102FC0001B68022423405908521C002903D1052301
:102FD0001B029A42F3D12A4B1B6802242340590852
:102FE000002901D100BFFEE7264B1B689B089B0010
:102FF000244C236023461B6802242343214C236076
:103000001F4B5B681E4C636023465B680324A4056A
:10301000A3431B4C636023465B681B4C2340184C46
:1030200063602346586800BF03231B04184300BF96
:1030300000BF234658601B68012424062343104C1C
:10304000236000BF0E4B1B68012464062340002B45
:10305000F8D00B4B5B68DB08DB00094C6360234650
:103060005B6802242343064C636000BF044B5B682B
:10307000064C23400124A403A342F7D110BD000055
:103080000010024000200240FFFFC0FE08C0000008
:1030900010B50446042C02D0601D002800D104E0C5
:1030A00080220AA116A001F0CFFF042C06D11F48F0
:1030B0000069042108431D49086105E01B480069B7
:1030C000042188431949086110BD00002E2E5C2E92
:1030D0002E5C6669726D776172655C6E3332673043
:1030E00033315F7374645F7065726970685F6472B6
:1030F000697665725C7372635C6D6973632E6300DD
:1031000049535F5359535449434B5F434C4B5F53AF
:103110004F55524345285379735469636B5F434C51
:103120004B536F75726365290000000000E000E0FA
:103130007047000010B51748006801210843154981
:10314000086008464068144908401249486008462B
:103150000068124908400F490860084600680121CC
:10316000890588430B490860084640680C490840B7
:10317000084948600720C002C862BF200004886078
:10318000084800681021084306490860FFF70CFF53
:1031900010BD0000001002400000FF21FFFFF6FEFE
:1031A000FFFF00FE0020024010B54F480069C00735
:1031B000C00F002800D110BD0120C0434A4908615A
:1031C0004A480078002817D049480078012813D1D0
:1031D00048480088002805D046480088401E4549D8
:1031E000088009E0012149024348FEF751FC00280C
:1031F00002D101204149087041480088012805DDBD
:103200003F480088401E3E490880D4E7384800788F
:10321000030001F016FE0659041628405A59FFF71C
:1032200055F838490978002901D0374900E0374975
:103230000846FFF795F83249088002202C490870AB
:103240004EE0FFF74BF823200001FFF789F82C49E7
:1032500008802C480078002801D0032000E00520D9
:10326000234908703CE0FFF731F829490968294AE9
:103270001278D140C907C90F002901D0264901E0C1
:10328000232109010846FFF76BF81D490880042037
:103290001749087024E01F480078401C1D49087039
:1032A000FFF71CF823200001FFF75AF814490880A3
:1032B0001848007813490978884201DB052000E0AE
:1032C00003200B4908700BE000BFFEF7FFFF002250
:1032D0000121054800F026F900200549087000BFCB
:1032E00000BF00BF67E70000002C01404C00002039
:1032F0003C0000204A000020000801404800002057
:103300003E0000204500002094110000CA08000083
:1033100040000020440000209A06000000B585B05F
:103320000020FFF707FB01211020FFF7C7FB01A8D2
:1033300000F0FEFE0F49684601812F2181800021A7
:103340004181C18001A90C4800F000FF14216846AA
:103350000170012141708170FFF720F801221146B0
:10336000054800F0DFF80121034800F039FA05B004
:1033700000BD0000E70300000010004070B50446E7
:103380000D461148844208D01048844205D01048A8
:10339000844202D00F48844200D104E00E4A0FA1BB
:1033A0001DA001F051FEE12000022840002802D1BA
:1033B000002D00D005E0084A521C08A11CA001F015
:1033C00043FEE843206170BD002C01400004004032
:1033D0000010004000340140C40B00002E2E5C2E73
:1033E0002E5C6669726D776172655C6E3332673030
:1033F00033315F7374645F7065726970685F6472A3
:10340000697665725C7372635C6E33326730333138
:103410005F74696D2E630000497354696D416C6C73
:103420004D6F64756C652854494D78290000000083
:10343000497354696D436C72466C61672854494DF9
:103440005F464C414729000070B504460D461448BC
:10345000844208D01348844205D01348844202D0E5
:103460001248844200D104E0114A12A120A001F0C8
:10347000EBFD002D01D0012D00D105E00C4A521CBE
:103480000CA121A001F0E0FD002D04D020688021D6
:103490000843206003E0206880218843206070BDDD
:1034A000002C0140000400400010004000340140A6
:1034B0000D0600002E2E5C2E2E5C6669726D776103
:1034C00072655C6E3332673033315F7374645F7082
:1034D00065726970685F6472697665725C73726345
:1034E0005C6E3332673033315F74696D2E63000078
:1034F000497354696D416C6C4D6F64756C652854EB
:10350000494D78290000000049535F46554E435409
:10351000494F4E414C5F535441544528436D6429F3
:103520000000000070B504460D4616461A48844255
:1035300008D01A48844205D01948844202D019485C
:10354000844200D105E03D22120117A125A001F01F
:103550007BFDFF2000022840002802D1002D00D072
:1035600004E0264A10A126A001F06EFD002E01D035
:10357000012E00D105E0214A521C0BA125A001F02B
:1035800063FD002E03D0A0892843A08102E0A0891A
:10359000A843A08170BD0000002C01400004004041
:1035A00000100040003401402E2E5C2E2E5C666917
:1035B000726D776172655C6E3332673033315F7381
:1035C00074645F7065726970685F64726976657251
:1035D0005C7372635C6E3332673033315F74696D74
:1035E0002E630000497354696D416C6C4D6F6475B6
:1035F0006C652854494D782900000000D103000073
:10360000497354696D496E742854494D5F49542972
:103610000000000049535F46554E4354494F4E4108
:103620004C5F535441544528436D64290000000009
:1036300070B504460D4600261048844205D0104857
:10364000844202D00F48844200D104E00E4A0FA108
:103650001DA001F0F9FC082D01D0002D00D105E0DE
:10366000094A521C09A11EA001F0EEFC268B254838
:103670000640304628430646268370BD002C014094
:1036800000040040003401406E0600002E2E5C2E27
:103690002E5C6669726D776172655C6E333267307D
:1036A00033315F7374645F7065726970685F6472F0
:1036B000697665725C7372635C6E33326730333186
:1036C0005F74696D2E630000497354696D4C6973B2
:1036D00074384D6F64756C652854494D7829000025
:1036E000497354696D4F635072654C6F61645374D4
:1036F0006174652854494D5F4F435072656C6F612A
:1037000064290000F7FF000070B504460D4600264E
:103710001048844205D01048844202D00F488442A9
:1037200000D104E00E4A0FA11DA001F08DFC082D70
:1037300001D0002D00D105E0094A521C09A11EA0AC
:1037400001F082FC268B254806402806000C064323
:10375000268370BD002C014000040040003401406D
:10376000860600002E2E5C2E2E5C6669726D7761D7
:1037700072655C6E3332673033315F7374645F70CF
:1037800065726970685F6472697665725C73726392
:103790005C6E3332673033315F74696D2E630000C5
:1037A000497354696D4C697374364D6F64756C65FB
:1037B0002854494D78290000497354696D4F63506E
:1037C00072654C6F616453746174652854494D5F30
:1037D0004F435072656C6F6164290000FFF7000071
:1037E00070B504460D461448844208D013488442FC
:1037F00005D01348844202D01248844200D104E02C
:10380000114A12A120A001F01FFC002D01D0012DB2
:1038100000D105E0E52292000CA121A001F014FCEA
:10382000002D04D0206801210843206003E02068B7
:1038300040084000206070BD002C014000040040A2
:103840000010004000340140930300002E2E5C2E37
:103850002E5C6669726D776172655C6E33326730BB
:1038600033315F7374645F7065726970685F64722E
:10387000697665725C7372635C6E333267303331C4
:103880005F74696D2E630000497354696D416C6CFF
:103890004D6F64756C652854494D7829000000000F
:1038A00049535F46554E4354494F4E414C5F535424
:1038B00041544528436D64290000000070B504465A
:1038C0000D461448844202D01348844200D104E0DB
:1038D000124A13A121A001F0B7FB002D01D0012D48
:1038E00000D105E0EB2292000DA122A001F0ACFB7B
:1038F000002D07D04420005B0121C9030843442167
:10390000085305E04420005B4104490C4420015366
:1039100070BD0000002C014000340140AB030000EA
:103920002E2E5C2E2E5C6669726D776172655C6E00
:103930003332673033315F7374645F7065726970FE
:10394000685F6472697665725C7372635C6E333251
:10395000673033315F74696D2E63000049735469B9
:103960006D4C697374324D6F64756C652854494DA4
:103970007829000049535F46554E4354494F4E4104
:103980004C5F535441544528436D642900000000A6
:10399000F8B505460C4600200090002600271D487B
:1039A000854208D01C48854205D01C48854202D07B
:1039B0001B48854200D104E01A4A1BA129A001F04E
:1039C00043FB012C0DD0022C0BD0042C09D0082C69
:1039D00007D0102C05D0202C03D0402C01D0802CF7
:1039E00000D105E00F4A521C0FA124A001F02CFBCE
:1039F000286920400646A88920400746002E04D0AA
:103A0000002F02D00120009001E0002000900098DB
:103A1000F8BD0000002C01400004004000100040F0
:103A200000340140E30B00002E2E5C2E2E5C6669F4
:103A3000726D776172655C6E3332673033315F73FC
:103A400074645F7065726970685F647269766572CC
:103A50005C7372635C6E3332673033315F74696DEF
:103A60002E630000497354696D416C6C4D6F647531
:103A70006C652854494D7829000000004973546949
:103A80006D476574496E742854494D5F4954290047
:103A9000F8B505460C4600200090002600275E4839
:103AA000854205D05D48854202D05D48854200D1FF
:103AB00005E0FF2206325BA169A001F0C5FA20886B
:103AC00000280ED0208810280BD02088202808D06D
:103AD0002088302805D02088602802D020887028CF
:103AE00000D105E0FF2207324EA163A001F0ACFA3D
:103AF0006088002802D06088012800D105E0FF22FC
:103B0000083248A166A001F09FFA2089002802D05F
:103B10002089022800D105E0FF22093241A16CA0D2
:103B200001F092FA286A4008400028622E6A6F6805
:103B3000288B0090724900980840009070496D31C0
:103B400000980840009020880099084300900221C6
:103B500030468843064620890643608806432E483F
:103B6000854202D02E4885424FD1A088002802D03D
:103B7000A088042800D105E0FF22253229A161A0F8
:103B800001F062FA6089002802D06089082800D11B
:103B900005E0FF22263223A167A001F055FAE08953
:103BA00001214902884202D0E089002800D105E0C5
:103BB000FF2227321BA16CA001F046FAA089FF2149
:103BC0000131884202D0A089002800D105E0FF22FF
:103BD000283214A171A001F037FA08213046884339
:103BE0000646608906430421304688430646A0887D
:103BF00006438901384688430746490038468843CA
:103C00000746A0890743E08907436F60009828832F
:103C1000E088A8862E62F8BD002C01400004004018
:103C2000003401402E2E5C2E2E5C6669726D776129
:103C300072655C6E3332673033315F7374645F700A
:103C400065726970685F6472697665725C737263CD
:103C50005C6E3332673033315F74696D2E63000000
:103C6000497354696D4C697374384D6F64756C6534
:103C70002854494D78290000497354696D4F634DAC
:103C80006F64652854494D5F4F43496E697453749E
:103C9000727563742D3E4F634D6F6465290000009B
:103CA000497354696D4F757470757453746174659C
:103CB0002854494D5F4F43496E697453747275635C
:103CC000742D3E4F7574707574537461746529005A
:103CD000497354696D4F63506F6C617269747928D0
:103CE00054494D5F4F43496E6974537472756374E0
:103CF0002D3E4F63506F6C6172697479290000002A
:103D00008FFF0000497354696D4F75747075744E60
:103D100053746174652854494D5F4F43496E69740B
:103D20005374727563742D3E4F75747075744E5371
:103D30007461746529000000497354696D4F636EA6
:103D4000506F6C61726974792854494D5F4F4349D3
:103D50006E69745374727563742D3E4F634E506F69
:103D60006C61726974792900497354696D4F636E8F
:103D700049646C6553746174652854494D5F4F43C1
:103D8000496E69745374727563742D3E4F634E4966
:103D9000646C65537461746529000000497354694B
:103DA0006D4F6349646C6553746174652854494D63
:103DB0005F4F43496E69745374727563742D3E4F3F
:103DC0006349646C6553746174652900F8B50546F0
:103DD0000C4600200090002600276248854205D04E
:103DE0006148854202D06148854200D105E0FF224A
:103DF00058325FA16DA001F027F9208800280ED06D
:103E0000208810280BD02088202808D0208830282F
:103E100005D02088602802D02088702800D105E0D5
:103E2000FF22593252A167A001F00EF960880028E4
:103E300002D06088012800D105E0FF225A324CA14F
:103E40006AA001F001F92089002802D02089022807
:103E500000D105E0FF225B3245A170A001F0F4F82B
:103E6000286A1021884328622E6A6F68288B009088
:103E700076490098084000907549009808400090E5
:103E800020780006000C009908430090202130465D
:103E900088430646208900010643608800010643E6
:103EA0003048854202D03148854253D1A08800284D
:103EB00002D0A088042800D105E0FF2278322CA18E
:103EC00064A001F0C1F86089002802D06089082848
:103ED00000D105E0FF22793225A16BA001F0B4F8F2
:103EE000E08901214902884202D0E089002800D1FE
:103EF00005E0FF227A321EA16FA001F0A5F8A0898B
:103F0000FF210131884202D0A089002800D105E0BC
:103F1000FF227B3216A175A001F096F88021304671
:103F200088430646608900010643402130468843A5
:103F30000646A08800010643090138468843074623
:103F40004900384688430746A08980000743E08936
:103F5000800007436F6000982883E08828872E62DE
:103F6000F8BD0000002C0140000400400034014076
:103F70002E2E5C2E2E5C6669726D776172655C6EAA
:103F80003332673033315F7374645F7065726970A8
:103F9000685F6472697665725C7372635C6E3332FB
:103FA000673033315F74696D2E6300004973546963
:103FB0006D4C697374364D6F64756C652854494D4A
:103FC00078290000497354696D4F634D6F6465280B
:103FD00054494D5F4F43496E6974537472756374ED
:103FE0002D3E4F634D6F646529000000497354698D
:103FF0006D4F757470757453746174652854494DB0
:104000005F4F43496E69745374727563742D3E4FEC
:1040100075747075745374617465290049735469BB
:104020006D4F63506F6C61726974792854494D5FAC
:104030004F43496E69745374727563742D3E4F63B8
:10404000506F6C617269747929000000FF8F000065
:10405000FFFC0000497354696D4F75747075744EA0
:1040600053746174652854494D5F4F43496E6974B8
:104070005374727563742D3E4F75747075744E531E
:104080007461746529000000497354696D4F636E53
:10409000506F6C61726974792854494D5F4F434980
:1040A0006E69745374727563742D3E4F634E506F16
:1040B0006C61726974792900497354696D4F636E3C
:1040C00049646C6553746174652854494D5F4F436E
:1040D000496E69745374727563742D3E4F634E4913
:1040E000646C6553746174652900000049735469F8
:1040F0006D4F6349646C6553746174652854494D10
:104100005F4F43496E69745374727563742D3E4FEB
:104110006349646C655374617465290000210180F2
:1041200041808180C180018141818181C18170474D
:104130000021C943818000210180C180418001723A
:1041400041728172C17201734173704770B5044648
:104150000D4600265C48844208D05C48844205D065
:104160005B48844202D05B48844200D104E0A9222B
:1041700059A168A000F068FF688800280BD0688803
:10418000102808D06888202805D06888402802D0E8
:104190006888602800D104E0AA224FA163A000F043
:1041A00053FFE888002808D0E888FF2101318842C1
:1041B00003D0E8884900884200D104E0AB2246A140
:1041C00066A000F041FF26683F48844205D0414880
:1041D000844202D03D48844205D170213046884354
:1041E0000646688806433A48844206D003210902FD
:1041F000304688430646E88806432660A888A0859E
:10420000288820853048844202D03248844201D137
:10421000287A20860120A08226682B48844205D077
:104220002C48844202D0294884420BD1687A002865
:1042300003D00120C002064304E00121C902304638
:10424000884306462148844216D1A87A002802D025
:10425000A014064304E001210903304688430646C2
:10426000E87A002803D001204003064304E001213E
:1042700049033046884306461348844205D0154812
:10428000844202D0114884420BD1287B002803D0FD
:104290000120C003064304E00121C90330468843DE
:1042A000064626606668094884420AD1687B002871
:1042B00002D0A015064304E0FF21013130468843B7
:1042C0000646666070BD0000002C014000040040FE
:1042D00000100040003401402E2E5C2E2E5C6669DA
:1042E000726D776172655C6E3332673033315F7344
:1042F00074645F7065726970685F64726976657214
:104300005C7372635C6E3332673033315F74696D36
:104310002E630000497354696D416C6C4D6F647578
:104320006C652854494D7829000000004973546990
:104330006D436E744D6F64652854494D5F54696DCB
:104340006542617365496E69745374727563742D47
:104350003E436E744D6F64652900000049735469D3
:104360006D436C6B4469762854494D5F54696D65A3
:1043700042617365496E69745374727563742D3E3E
:10438000436C6B446976290070B504460D460848B5
:10439000844205D00748844202D00748844200D1B5
:1043A00004E0064A06A115A000F04EFEA58670BDE9
:1043B000002C014000040040003401402C0A0000A1
:1043C0002E2E5C2E2E5C6669726D776172655C6E56
:1043D0003332673033315F7374645F706572697054
:1043E000685F6472697665725C7372635C6E3332A7
:1043F000673033315F74696D2E630000497354690F
:104400006D4C697374384D6F64756C652854494DF3
:104410007829000070B504460D460848844205D04E
:104420000748844202D00748844200D104E0064A8B
:1044300006A115A000F008FE258770BD002C0140E4
:104440000004004000340140390A00002E2E5C2E8A
:104450002E5C6669726D776172655C6E33326730AF
:1044600033315F7374645F7065726970685F647222
:10447000697665725C7372635C6E333267303331B8
:104480005F74696D2E630000497354696D4C6973E4
:1044900074364D6F64756C652854494D7829000059
:1044A00010B51948008810210843174908800846AC
:1044B0000088202188431449088014480078012886
:1044C0000FD1134908704B2000011249088000BF2A
:1044D000D722114911A000F08DFC17A000F08AFC32
:1044E00010E000200A4908704B20C00009490880EC
:1044F00000BFDD22084909A000F07CFC13A000F0F9
:1045000079FC00BF10BD0000180000203000002022
:104510003400002036000020985100084C4F4720FE
:10452000696E2046554E433A25732C204C494E4522
:104530003A25642E00000000547265617420726593
:10454000642073746172740D0A0000005472656116
:104550007420626C75652073746172740D0A0000BA
:10456000054800881021884303490880002003493A
:1045700008800349087070471800002036000020AA
:104580003000002010B53B480088002804DD394881
:104590000088401E3749088036480088002827DDFB
:1045A000FF212D3133480088FBF7A4FD00290AD1F3
:1045B00032213148FFF7E8FEC82000F063FD0021FA
:1045C0002D48FFF7E1FE00BFF9222C492CA000F096
:1045D00011FC32480078002801D131A000E032A05F
:1045E00001462448028831A000F004FC00BF10BD41
:1045F00032480078032822D12848007800281ED1AC
:104600000120264908704B2000011A4908803221F8
:104610001948FFF7B9FEFF20F53000F033FD002107
:104620001548FFF7B1FE00BFFF220832134914A05E
:1046300000F0E0FB22A000F0DDFB00BFD7E7322155
:104640000D48FFF7A1FE7D20C00000F01BFD0021FA
:104650000948FFF799FEFFF783FF00BFFF221032E2
:10466000064907A000F0C6FB1EA000F0C3FB00BF78
:1046700000BFBCE73600002000040040A451000841
:104680004C4F4720696E2046554E433A25732C20E7
:104690004C494E453A25642E0000000034000020AD
:1046A000626C75650000000072656400547265619B
:1046B000742025733A25640D0A00000030000020A4
:1046C000547265617420626C756520646F6E652C30
:1046D0002073776974636820746F207265640D0AB3
:1046E00000000000547265617420636F6D706C652A
:1046F00074650D0A0000000070B504460D461248AE
:10470000844202D01148844200D105E0FF224232A7
:104710000FA11FA000F098FC002D01D0012D00D1A9
:1047200005E0FF2243320AA120A000F08DFC002DFD
:1047300005D0A089012149030843A08103E0A08995
:1047400021490840A08170BD00380140004400406C
:104750002E2E5C2E2E5C6669726D776172655C6EC2
:104760003332673033315F7374645F7065726970C0
:10477000685F6472697665725C7372635C6E333213
:10478000673033315F75736172742E63000000000F
:1047900049535F55534152545F414C4C5F50455211
:1047A00049504828555341525478290049535F468F
:1047B000554E4354494F4E414C5F53544154452844
:1047C000436D642900000000FFDF000070B505465E
:1047D0000C4600262148854202D02148854200D15E
:1047E00004E0204A20A130A000F02EFC012C14D0BF
:1047F000802C12D0402C10D0202C0ED0102C0CD09D
:10480000FF200130844208D04000844205D0082CAB
:1048100003D0042C01D0022C00D105E0114A521C17
:1048200011A128A000F010FC0120400284420CD10C
:104830000A48854202D00A48854200D105E0094A6B
:10484000521D09A126A000F0FFFB28882040002867
:1048500001D0012600E00026304670BD003801403E
:1048600000440040010300002E2E5C2E2E5C666981
:10487000726D776172655C6E3332673033315F73AE
:1048800074645F7065726970685F6472697665727E
:104890005C7372635C6E3332673033315F757361A2
:1048A00072742E630000000049535F555341525407
:1048B0005F414C4C5F504552495048285553415236
:1048C0005478290049535F55534152545F464C4137
:1048D000472855534152545F464C41472900000038
:1048E00049535F55534152545F31325F50455249ED
:1048F000504828555341525478290000F0B589B0EA
:1049000005460C4600260020089000BF00BF002787
:104910006348854202D06348854200D104E0AC225E
:1049200061A171A000F090FB2068002804D07549B7
:104930002068884200D204E0AD225BA172A000F0A2
:1049400083FBA088002804D0A088012109038842A5
:1049500000D104E0AE2254A177A000F075FBE088FE
:1049600000280DD0E08801210903884208D0E088A2
:104970004900884204D0E08803210903884200D11D
:1049800004E0AF2248A179A000F05EFB2089002856
:1049900009D0208901218902884204D0208903217D
:1049A0004902884200D104E0B0223FA17BA000F080
:1049B0004BFB608984490840002803D160890028A6
:1049C00000D004E0B12238A180A000F03DFBA08916
:1049D00000280DD0A089FF210131884208D0A0898C
:1049E0004900884204D0A08903210902884200D1ED
:1049F00004E0B2222CA17F4800F026FBA089002809
:104A00000BD02748854202D02648854200D104E0D9
:104A1000B62225A178A000F017FB2F462E8A7D48EC
:104A20000640E08806432E82AE897B480640A08877
:104A300021890843618908430643AE81AE8A7748DD
:104A40000640A0890643AE826846FEF75BF914482B
:104A5000874202D10398089001E0029808902268EA
:104A600091001923089A5A431046FBF743FB07901D
:104A700064210798FBF73EFB06013109642041439E
:104A80000798411A069106990901084632306421B7
:104A9000FBF730FB0007000F06432E8109B0F0BD85
:104AA00000380140004400402E2E5C2E2E5C6669CA
:104AB000726D776172655C6E3332673033315F736C
:104AC00074645F7065726970685F6472697665723C
:104AD0005C7372635C6E3332673033315F75736160
:104AE00072742E630000000049535F5553415254C5
:104AF0005F414C4C5F5045524950482855534152F4
:104B000054782900C1C62D0049535F555341525472
:104B10005F42415544524154452855534152545FD8
:104B2000496E69745374727563742D3E4261756485
:104B3000526174652900000049535F555341525436
:104B40005F574F52445F4C454E4754482855534198
:104B500052545F496E69745374727563742D3E5775
:104B60006F72644C656E67746829000049535F5525
:104B7000534152545F53544F504249545328555354
:104B80004152545F496E69745374727563742D3E5B
:104B900053746F70426974732900000049535F5564
:104BA000534152545F504152495459285553415230
:104BB000545F496E69745374727563742D3E50610D
:104BC0007269747929000000F3FF000049535F55B2
:104BD000534152545F4D4F44452855534152545F01
:104BE000496E69745374727563742D3E4D6F6465BC
:104BF00029000000BC51000849535F5553415254ED
:104C00005F31325F50455249504828555341525404
:104C100078290000FFCF0000F3E90000FFFC00004E
:104C200070B504460D460D48844202D00C488442BB
:104C300000D105E04522D2000AA11AA000F004FA32
:104C40001F48854200DC05E01D4A2A3205A11DA04F
:104C500000F0FAF9E805C00DA08070BD00380140F1
:104C6000004400402E2E5C2E2E5C6669726D7761CA
:104C700072655C6E3332673033315F7374645F70BA
:104C800065726970685F6472697665725C7372637D
:104C90005C6E3332673033315F75736172742E63CB
:104CA0000000000049535F55534152545F414C4C42
:104CB0005F50455249504828555341525478290075
:104CC000FF01000049535F55534152545F44415422
:104CD000412844617461290000B58BB001210D2089
:104CE000FDF758FF01218803FDF754FF01A8FCF7E9
:104CF000C1FE40200190022002900420069001A9EC
:104D00001048FCF751FC0120C003019004200690DC
:104D100001A90D48FCF748FCE12040020790002162
:104D2000684601844184818401850C21C18407A9DE
:104D30000648FFF7E3FD01210448FFF7DDFC0BB057
:104D400000BD0000000C0140000801400038014097
:104D500030B58FB004460D4601214803FDF71AFF18
:104D600001210520FDF716FF09A8FCF783FE80202E
:104D7000099002200A9001200D900E9009A91B486D
:104D8000FCF712FC05A8FFF7D3F968460483858277
:104D900000214183C18205A91548FFF7D7F901A871
:104DA000FFF7BCF97021684681800121C180002194
:104DB0000181C1814182018241810221818101A958
:104DC0000B48FFF703F808210948FEF79DFC012175
:104DD0000748FEF739FB01210548FEF701FD0121D7
:104DE0000348FEF76BFD0FB030BD00000008014026
:104DF000003401400FB410B503A9044B044A0298D3
:104E000000F03CF810BC08BC04B01847D5500008AE
:104E1000540000202021020C01D010211046020A6B
:104E200001D010460839020901D01046091F820836
:104E300001D01046891E420801D0881E7047081A0A
:104E4000704730B47446641E2578641CAB4204D3AA
:104E5000635D5B00E31830BC18471D46F8E702E0CD
:104E600008C8121F08C1002AFAD1704770470020F5
:104E700001E001C1121F002AFBD17047FFB58DB0C0
:104E80000F460546002606E025280AD0109A0F99FD
:104E900090476D1C761C28780028F5D1304611B05B
:104EA000F0BD00240121674A009400E004436D1C1A
:104EB0002B780846203B98401042F7D128782E28BE
:104EC00015D10420044368786D1C2A280AD101CF2B
:104ED0006D1C00900BE000990A22514330394018B4
:104EE0006D1C00902878014630390929F3D92878BB
:104EF000692843D006DC0028D0D063280BD0642872
:104F000004D13BE073280FD075284CD0109A0F992C
:104F10009047761C94E03878694608720020487201
:104F200002A80190012003E0386801900020C043EE
:104F30003F1D61070CD5002400E0641C00998C42E1
:104F40000FDA8442F9DB0199095D0029F5D108E007
:104F5000002400E0641C8442FCDB0199095D002907
:104F6000F8D1361907E0019801990078491C0191A0
:104F7000109A0F999047641EF5D261E00A200190C3
:104F800001CF002802DA40422D2102E0210504D59C
:104F90002B216A461172012103E0E10701D0202193
:104FA000F7E70C9104E00A20019001CF00210C9159
:104FB0000BA90B9108E00199FBF79CF80A460B99A5
:104FC0003032491E0B910A700028F4D10B9803A9C6
:104FD000081A20300190600701D5009801E00120F7
:104FE00000900199884203DD01460198081A00E00B
:104FF00000200024009006E002A8109A005D0F999E
:105000009047641C761C0C988442F5DB04E0109AEF
:1050100030200F999047761C0099481E0090002977
:10502000F5DC08E00B980B990078491C0B91109A5D
:105030000F999047761C0199481E01900029F1DCD8
:105040006D1C28E70928010000BFFEE710B5042009
:10505000C043FEF71DF8074907480068FBF74AF808
:1050600006490870084600787D21C9004843044974
:10507000088010BD00127A000000002038000020D7
:105080003A0000200146114A12884A43104B5A61E7
:1050900000229A611A46126901231A430C4B1A61C5
:1050A00000BF0B4A1069C207D20F002A04D00122A8
:1050B00012040240002AF4D0054A12695208520034
:1050C000034B1A6100229A61704700003A000020E9
:1050D00000E000E070B504460D46E1B20548FFF778
:1050E0009FFD00BF40210348FFF770FB0028F9D067
:1050F000204670BD00380140FCF710FAFFF7A6FF0C
:105100002F21FF207230FCF7C1F9FCF763FFFEF797
:1051100005F9FFF7E1FDFBF76BFFFDF7E7F8FDF79A
:1051200007F908494220FFF713FE09E0402106482D
:10513000FCF7E6FDFBF7D8FEFCF764FFFBF7A8FFE2
:10514000F4E700007FBB0000000801400000000001
:105150000102030401020304060708090102030413
:1051600006080A0C10202020202020200100020028
:1051700003000400060008000A000C0010002000D4
:1051800040008000000100010001000157656172CC
:105190005F5570646174650054726561745F537427
:1051A0006172740054726561745F5469636B00418D
:1051B00070705F48616E646C6500000049535F5514
:1051C000534152545F48415244574152455F464C07
:1051D0004F575F434F4E54524F4C285553415254F2
:1051E0005F496E69745374727563742D3E486172C1
:1051F0006477617265466C6F77436F6E74726F6C23
:10520000290000002452000800000020580000007F
:105210005E4E00087C520008580000200004000088
:105220006E4E0008006CDC0200000000000064000C
:10523000FA00FFFF00000000000000000000000076
:10524000E803FFFF102700000000000002002C010F
:10525000F401FF000000000000000000000000005A
:10526000000000000000000000000000000000003E
:0C52700000000000000000000000000032
:04000005080000C12E
:00000001FF
