:020000040800F2
:1000000008040020D900000825090008210900087B
:1000100000000000000000000000000000000000E0
:10002000000000000000000000000000050A0008B9
:10003000000000000000000027090008950B0008E0
:10004000EB000008EB000008EB000008EB000008E4
:10005000EB000008EB000008EB000008EB000008D4
:10006000EB000008EB000008EB000008EB000008C4
:10007000EB000008EB000008EB000008EB000008B4
:10008000EB000008EB000008EB000008EB000008A4
:10009000EB000008EB000008EB000008EB00000894
:1000A000EB000008EB000008EB000008EB00000884
:1000B000EB000008EB000008EB000008EB00000874
:1000C0000448854600F02CF800480047B90C0008A9
:1000D000C046C04608040020044880470448004742
:1000E000FEE7FEE7FEE7FEE7FEE7FEE7990B000806
:1000F000C100000830B50B46014600202022012433
:1001000009E00D46D5409D4205D31D469540491B4B
:100110002546954040191546521E002DF1DC30BD94
:10012000064C0125064E05E0E36807CC2B430C3C4A
:1001300098471034B442F7D3FFF7C6FFE80C000825
:10014000080D000800B587B00121042000F0ECFB89
:100150000121082000F0E8FB0121802000F0E4FBF1
:1001600001A800F09BFA154801900120029001A916
:10017000134800F02BF8082001900120029001A9FB
:10018000104800F023F801200190029001A90E48C8
:1001900000F01CF80321C902094800F027FB2821C0
:1001A000074800F089FA0821064800F085FA012185
:1001B000054800F081FA07B000BD000028180000D3
:1001C00000080140000C0140001C0140F8B5064643
:1001D0000C460027002000900025C748864208D022
:1001E000C648864205D0C648864202D0C5488642E7
:1001F00000D104E0E022C4A1D3A000F016FDBE4867
:10020000864208D1208880B2002804D0D5492068D1
:100210000843884224D0B948864208D1208880B259
:10022000002804D0CF4920680843884218D0B44839
:10023000864209D10721490320680840002803D0DD
:100240002068084388420BD0AE48864209D1C721B6
:1002500020680840002804D020680843C72800D13F
:1002600004E0E122A8A1C0A000F0DFFC6068002843
:1002700026D06068012823D06068112820D06068EB
:1002800002281DD0606812281AD0C44960688842CC
:1002900016D0C3496068884212D0C249606888425B
:1002A0000ED0C149606888420AD0C049606888425F
:1002B00006D0BF496068884202D06068032800D138
:1002C00004E0E32290A1BBA000F0AFFCA0680028EE
:1002D00005D0A068012802D0A068022800D104E05F
:1002E000E42289A1BEA000F0A0FCE068002802D0B2
:1002F000E068012800D104E0E52283A1C3A000F05A
:1003000094FC2069002802D02069012800D104E073
:10031000E6227DA1C8A000F088FCE6E00121B940FA
:10032000206808400090009800287DD0606802286E
:1003300002D06068122829D160690F2800D804E033
:10034000F42271A1C8A000F070FC082038400028F9
:100350000ED0756A7807C10E0F2088402946814368
:100360000D467907C90E60698840054375620DE046
:10037000356A7807C10E0F208840294681430D4613
:100380007907C90E606988400543356260680128B5
:1003900008D06068112805D06068022802D0606823
:1003A00012280BD175680120B840294681430D46BB
:1003B0002079C006C00FB8400543756035687900E4
:1003C00003208840294681430D4620798007800F0D
:1003D0007900884005433560F5687900032088403E
:1003E000294681430D467900A06888400543F560A1
:1003F000B5680120B840294681430D46E068B84001
:100400000543B560F56A0120B840294681430D4691
:100410002069B8400543F56201210907606808407A
:10042000884261D19B4800E05EE0B90889004558E8
:10043000B807010F0F208840294681430D462E48FA
:10044000864201D100200AE02C48864201D10120D9
:1004500005E02B48864201D1022000E00520B907C3
:10046000090F884005438B48B908890045508A48E0
:1004700005682946009881430D46012109046068FA
:100480000840884201D100980543834805604568CB
:100490002946009881430D460121490460680840BF
:1004A000884201D1009805437B484560856829460C
:1004B000009881430D460121090560680840884283
:1004C00001D10098054374488560C56829460098A5
:1004D00081430D460121490560680840884201D1E9
:1004E000009805436C48C5607F1C2068F8400028D0
:1004F00000D013E7F8BD000000080140000C0140E7
:1005000000100140001C01402E5C2E2E5C2E2E5C43
:100510006669726D776172655C6E33326730333154
:100520005F7374645F7065726970685F6472697626
:1005300065725C7372635C6E3332673033315F6750
:1005400070696F2E6300000049535F4750494F5F49
:10055000414C4C5F504552495048284750494F78CC
:1005600029000000FFFF000049535F4750494F5FDB
:1005700050494E5F415641494C41424C45284750F5
:10058000494F782C204750494F5F496E6974537426
:10059000727563742D3E50696E29000000001110C1
:1005A0000000211000003110002013100000121074
:1005B0000000321049535F4750494F5F4D4F44454B
:1005C000284750494F5F496E69745374727563745C
:1005D0002D3E4750494F5F4D6F6465290000000074
:1005E00049535F4750494F5F50554C4C284750493D
:1005F0004F5F496E69745374727563742D3E475032
:10060000494F5F50756C6C290000000049535F47EB
:1006100050494F5F5350454544284750494F5F4923
:100620006E69745374727563742D3E4750494F5F01
:10063000537065656429000049535F4750494F5F17
:1006400043555252454E54284750494F5F496E69B1
:10065000745374727563742D3E4750494F5F4375F0
:100660007272656E7429000049535F4750494F5FAD
:100670004146284750494F5F496E697453747275FB
:1006800063742D3E4750494F5F416C7465726E61D3
:10069000746529000800014000040140054901601B
:1006A0000F2141610021416081600121C160002171
:1006B00001617047FFFF000070B504460D462648F3
:1006C000844208D02548844205D02548844202D07F
:1006D0002448844200D105E0FF22D23222A132A078
:1006E00000F0A3FA1C48844207D1A8B2002804D025
:1006F000344828433349884224D01848844207D1DB
:10070000A8B2002804D02F4828432E49884219D087
:10071000134884420BD1072040032840002806D00C
:100720000720400328430721490388420AD00D4887
:10073000844208D1C7202840002804D0C72028437D
:10074000C72800D105E0FF22D33207A11EA000F088
:100750006CFAA56270BD000000080140000C014069
:1007600000100140001C01402E5C2E2E5C2E2E5CE1
:100770006669726D776172655C6E333267303331F2
:100780005F7374645F7065726970685F64726976C4
:1007900065725C7372635C6E3332673033315F67EE
:1007A00070696F2E6300000049535F4750494F5FE7
:1007B000414C4C5F504552495048284750494F786A
:1007C00029000000FFFF000049535F4750494F5F79
:1007D00050494E5F415641494C41424C4528475093
:1007E000494F782C2050696E2900000070B50446EE
:1007F0000D462648844208D02548844205D0254825
:10080000844202D02448844200D105E0FF22C33252
:1008100022A132A000F009FA1C48844207D1A8B2F4
:10082000002804D0344828433349884224D018484B
:10083000844207D1A8B2002804D02F4828432E496B
:10084000884219D0134884420BD107204003284026
:10085000002806D007204003284307214903884287
:100860000AD00D48844208D1C7202840002804D06F
:10087000C7202843C72800D105E0FF22C43207A1C2
:100880001EA000F0D2F9A56170BD00000008014073
:10089000000C014000100140001C01402E5C2E2E77
:1008A0005C2E2E5C6669726D776172655C6E3332A8
:1008B000673033315F7374645F7065726970685F4D
:1008C0006472697665725C7372635C6E3332673032
:1008D00033315F6770696F2E6300000049535F47D3
:1008E00050494F5F414C4C5F504552495048284752
:1008F00050494F7829000000FFFF000049535F472F
:1009000050494F5F50494E5F415641494C41424C1E
:1009100045284750494F782C2050696E2900000027
:1009200000BFFEE77047704770B504460D46124899
:100930002040002802D1002C00D004E00F4A10A172
:100940001FA000F072F9002D01D0012D00D105E0AB
:100950000A4A521C0AA123A000F067F9002D05D015
:100960002748806920432649886104E0244880693B
:10097000A0432349886170BD6289FFFF9504000090
:100980002E5C2E2E5C2E2E5C6669726D7761726510
:100990005C6E3332673033315F7374645F706572DD
:1009A0006970685F6472697665725C7372635C6EAD
:1009B0003332673033315F7263632E6300000000AF
:1009C00049535F5243435F415042325F5045524961
:1009D0005048285243435F4150423250657269701B
:1009E0006829000049535F46554E4354494F4E41D4
:1009F0004C5F535441544528436D64290000000066
:100A0000001002407047000010B5002000220021B5
:100A1000334B1B6801242343314C236000BF304B10
:100A20001B68022423405908521C002903D10523C6
:100A30001B029A42F3D12A4B1B6802242340590817
:100A4000002901D100BFFEE7264B1B689B089B00D5
:100A5000244C236023461B6802242343214C23603B
:100A60001F4B5B681E4C636023465B680324A40530
:100A7000A3431B4C636023465B681B4C2340184C0C
:100A800063602346586800BF03231B04184300BF5C
:100A900000BF234658601B68012424062343104CE2
:100AA000236000BF0E4B1B68012464062340002B0B
:100AB000F8D00B4B5B68DB08DB00094C6360234616
:100AC0005B6802242343064C636000BF044B5B68F1
:100AD000064C23400124A403A342F7D110BD00001B
:100AE0000010024000200240FFFFC0FE08C00000CE
:100AF00010B50446042C02D0601D002800D104E08B
:100B000080220AA117A000F090F8042C06D12048FA
:100B10000069042108431E49086105E01C4800697A
:100B2000042188431A49086110BD00002E5C2E2E56
:100B30005C2E2E5C6669726D776172655C6E333215
:100B4000673033315F7374645F7065726970685FBA
:100B50006472697665725C7372635C6D6973632E2F
:100B60006300000049535F5359535449434B5F435B
:100B70004C4B5F534F555243452853797354696327
:100B80006B5F434C4B536F75726365290000000027
:100B900000E000E07047000010B517480068012130
:100BA000084315490860084640681449084012493E
:100BB000486008460068124908400F490860084626
:100BC00000680121890588430B4908600846406890
:100BD0000C490840084948600720C002C862BF208D
:100BE000000488600848006810210843064908602E
:100BF000FFF70AFF10BD0000001002400000FF21B7
:100C0000FFFFF6FEFFFF00FE0020024002E008C8E2
:100C1000121F08C1002AFAD170477047002001E076
:100C200001C1121F002AFBD1704700BFFEE7000080
:100C300010B50420C043FFF75BFF07490748006871
:100C4000FFF758FA06490870084600787D21C90068
:100C500048430449088010BD00127A0004000020B7
:100C600000000020020000200146114A12884A4379
:100C7000104B5A6100229A611A46126901231A43E5
:100C80000C4B1A6100BF0B4A1069C207D20F002A31
:100C900004D0012212040240002AF4D0054A12694D
:100CA00052085200034B1A6100229A6170470000FB
:100CB0000200002000E000E0FFF744FAFFF7B8FF71
:100CC0000FE00121C9020748FFF7F6FC6420FFF797
:100CD000CBFF0121C9020348FFF788FD6420FFF71D
:100CE000C3FFEEE700080140080D000800000020E7
:100CF000080000000C0C0008100D0008080000207F
:100D0000000400001C0C000800000000006CDC0265
:04000005080000C12E
:00000001FF
